:020000040000FA
:10000000020D7785A73675A720852F3E852E3D8565
:100010002D3C852C3B120BAB8534C8E53045314572
:100020003245334535F5938536A72202113FE4F575
:10003000EF2222020C4A8F308D31E5316005753197
:10004000FF8003E4F5317F8012191C8F32E5300404
:10005000FF12182E8F33E4FF74342FF8A6310FBF30
:1000600010F6E4F544F545FB7A0079327D1402156B
:02007000DE228E
:10007300021B56AEA775A720539D0FEF4D429D530C
:10008300D80F43D8808EA722020A38E709F608DF83
:10009300FA8046E709F208DFFA803E88828C83E71C
:1000A30009F0A3DFFA8032E309F608DFFA8078E388
:1000B30009F208DFFA807088828C83E309F0A3DFFA
:1000C300FA806489828A83E0A3F608DFFA8058897C
:1000D300828A83E0A3F208DFFA804C80D280FA8020
:1000E300C680D4806980F28033801080A680EA8045
:1000F3009A80A880DA80E280CA803389828A83EC7E
:10010300FAE493A3C8C582C8CCC583CCF0A3C8C501
:1001130082C8CCC583CCDFE9DEE7800D89828A8380
:10012300E493A3F608DFF9ECFAA9F0EDFB22898248
:100133008A83ECFAE0A3C8C582C8CCC583CCF0A3FC
:10014300C8C582C8CCC583CCDFEADEE880DB898200
:100153008A83E493A3F208DFF980CC88F0EF60018F
:100163000E4E60C388F0ED2402B4040050B9F5824A
:10017300EB2402B4040050AF23234582239000DE16
:1001830073BB010689828A83E0225002E722BBFE09
:1001930002E32289828A83E49322BB010CE582294C
:1001A300F582E5833AF583E0225006E92582F8E6F5
:1001B30022BBFE06E92582F8E222E58229F582E5E3
:1001C300833AF583E49322C5F0F8A3E028F0C5F061
:1001D300F8E582158270021583E038F022E88FF08B
:1001E300A4CC8BF0A42CFCE98EF0A42CFC8AF0EDBB
:1001F300A42CFCEA8EF0A4CDA8F08BF0A42DCC386F
:1002030025F0FDE98FF0A42CCD35F0FCEB8EF0A4A6
:10021300FEA9F0EB8FF0A4CFC5F02ECD39FEE43C60
:10022300FCEAA42DCE35F0FDE43CFC2275F0087504
:100233008200EF2FFFEE33FECD33CDCC33CCC5821E
:1002430033C5829BED9AEC99E58298400CF582EEDA
:100253009BFEED9AFDEC99FC0FD5F0D6E4CEFBE4C2
:10026300CDFAE4CCF9A88222B800C1B90059BA008A
:100273002DEC8BF084CFCECDFCE5F0CBF97818EFE5
:100283002FFFEE33FEED33FDEC33FCEB33FB10D7E6
:1002930003994004EB99FB0FD8E5E4F9FA227818A7
:1002A300EF2FFFEE33FEED33FDEC33FCC933C91002
:1002B300D7059BE99A4007EC9BFCE99AF90FD8E034
:1002C300E4C9FAE4CCFB2275F010EF2FFFEE33FE06
:1002D300ED33FDCC33CCC833C810D7079BEC9AE879
:1002E30099400AED9BFDEC9AFCE899F80FD5F0DAFA
:1002F300E4CDFBE4CCFAE4C8F922EB9FF5F0EA9EE7
:1003030042F0E99D42F0E89C45F022E0FBA3E0FACD
:10031300A3E0F922EBF0A3EAF0A3E9F022EC8EF0DC
:10032300A4CCC5F0CCCDF8EFA4CEC5F02DFDE43CB4
:10033300FCE8A42EC8C5F03DFDE43CFCEFA4FFE5BA
:10034300F028FEE43DFDE43CFC22E3F5F009E2087D
:10035300B5F06D606B80F3E3F5F009E608B5F06086
:10036300605E80F387F009E608B5F054605280F4CC
:1003730087F009E208B5F048604680F488828C83F0
:1003830087F009E0A3B5F038603680F488828C8367
:1003930087F009E493A3B5F027602580F388828C66
:1003A30083E3F5F009E0A3B5F016601480F38882C7
:1003B3008C83E3F5F009E493A3B5F004600280F2C3
:1003C300020478808580E7808E80D2803C8015800F
:1003D3006C807E809B80B5808B80A1804F807080F5
:1003E3003A02048489828A83ECFAE493F5F0A3C881
:1003F300C582C8CCC583CCE493A3C8C582C8CCC589
:1004030083CCB5F070606E80E189828A83E493F5D2
:10041300F0A3E208B5F05E605C80F289828A83E033
:10042300F5F0A3E608B5F04D604B80F389828A832B
:10043300E0F5F0A3E208B5F03C603A80F389828AE4
:1004430083E493F5F0A3E608B5F02A602880F280F0
:100453005389828A83ECFAE493F5F0A3C8C582C872
:10046300CCC583CCE0A3C8C582C8CCC583CCB5F0CA
:1004730004600280E27FFFB5F0020F2240027F0199
:100483002289828A83ECFAE0F5F0A3C8C582C8CC3E
:10049300C583CCE0A3C8C582C8CCC583CCB5F0D591
:1004A30060D380E389828A83ECFAE0F5F0A3C8C5C0
:1004B30082C8CCC583CCE493A3C8C582C8CCC5830A
:1004C300CCB5F0B160AF80E288F0ED2402B4040053
:1004D30050A3F582EB2402B40400509923234582F0
:1004E300239003C673E709F60870FA8046E709F21A
:1004F3000870FA803E88828C83E709F0A370FA8043
:100503007EE309F60870FA8076E309F20870FA8050
:100513006E88828C83E309F0A370FA806289828AF1
:1005230083E0A3F60870FA805689828A83E0A3F2F7
:100533000870FA804A80D280FA80C680D4806580B1
:10054300F28031801080A680EA809A80A880DA80C9
:10055300E280CA803189828A83ECFAE493A3C8C516
:1005630082C8CCC583CCF0A3C8C582C8CCC583CC14
:1005730070E9800D89828A83E493A3F60870F9EC0D
:10058300FAA9F0EDFB2289828A83ECFAE0A3C8C5BD
:1005930082C8CCC583CCF0A3C8C582C8CCC583CCE4
:1005A30070EA80DD89828A83E493A3F20870F9807C
:1005B300CE88F0ED2402B4040050C4F582EB24028B
:1005C300B4040050BA232345822390053873BB013A
:1005D3000689828A83F0225002F722BBFE01F322AE
:1005E30078287C007D007BFF7A1779FB7E007F02F1
:1005F30012015E782A7C007D007BFF7A1779FD7EED
:10060300007F0312015E75350075360075372A7B4E
:10061300017A007915120E8890022C1203179002AA
:100623002C12030EE94A4B60407535007536007590
:10063300372A7B007A007900120E8890022C12036D
:1006430017120184B423D790022C12030E900014C6
:10065300E075F003A4242FF582E43402F58312033A
:1006630017900014E004F080B57BFF7A1779D17DF1
:10067300017F021210987BFF7A1779E27D017F03D5
:10068300121098753003900014E0FFE530C39F40CB
:10069300030207B2E4900213F0E53075F003A424DB
:1006A3002FF582E43402F58312030E753500753697
:1006B30000753728120E888B2D8A2E892F753500E9
:1006C3007536007537287B007A007900120E888B07
:1006D3002D8A2E892F8B358A3689377B017A0279C9
:1006E3001312136B7535FF7536177537F37B017A64
:1006F30002791312136BA82FAC2EAD2D7BFF7A1743
:1007030079F71204CBEF70030207B2753500753623
:10071300007537287B007A007900120E888B2D8AAA
:100723002E892F8B358A3689377B017A027913120A
:10073300136B753106AB2DAA2EA92F121AD2D3E54E
:10074300319FE49E40167535FF7536177537F97B73
:10075300017A02791312136B153180D9753500753F
:1007630036007537287B007A007900120E888B2DAE
:100773008A2E892F7535007536007537287B007AE8
:10078300007900120E888B2D8A2E892F8B358A369D
:1007930089377B017A02791312136BE53004FF7BEF
:1007A300017A0279137D011210980530020689E55A
:1007B3003024FD900014F0222D2D2D2D2D2D2D2DC7
:1007C3002D2D2D2D2D2D2D2D2D2D2D2D2D00545831
:1007D30020446174613A00525820446174613A00C4
:1007E3000A005065726970686572616C0043656EDA
:1007F3007472616C2D3E5065726970686572616CCC
:10080300005065726970686572616C2D3E43656E58
:100813007472616C0043484F4F53452041204D4F44
:1008230044450043454E5452414C20504552495093
:10083300484552414C005042312020202020205076
:10084300423000434F4E4E45435420544F204120E5
:100853004247583A005363616E6E696E6700507287
:1008630065737320504230206F72205042312074E0
:100873006F00736565204247582064657669636538
:1008830073002D00557365206A6F79737469636B08
:1008930020746F0073656C656374206465766963A7
:1008A3006520230031008F2B8E2A8D298C28E47F2D
:1008B30099FEFDFCAB2BAA2AA929A828D31202FD75
:1008C3005006752C01020972E47F797E0AFDFCABA8
:1008D3002BAA2AA929A828C31202FD4014E47FA544
:1008E3007E0BFDFCA828D31202FD5005752C028057
:1008F3007EE47F4F7E09FDFCAB2BAA2AA929A828F9
:10090300C31202FD4014E47F7B7E0AFDFCA828D3BA
:100913001202FD5005752C038055E47FDC7E05FD36
:10092300FCAB2BAA2AA929A828C31202FD4014E470
:100933007F087E07FDFCA828D31202FD5005752C05
:1009430004802CE47F267E07FDFCAB2BAA2AA92971
:10095300A828C31202FD4014E47F527E08FDFCA8C0
:1009630028D31202FD5005752C058003E4F52CAF46
:100973002C228F388D398B3AAB3BAA3CA93D12010F
:10098300847003020A37F53EC3648094A04009D300
:10099300E53E648094FE4003753E20E539D39478A8
:1009A3004002807CAF3EEF3395E0FE75F064E53A9C
:1009B300A42FF582E5F03EF583E582245AF582E51E
:1009C30083341CF583E493F9E539131313541F257A
:1009D30038FDF8C000E6FA08E6FBE5395407FCE405
:1009E3007EFFA804088005CEC313CE13D8F9F4FF05
:1009F300EEF45AFEEB5FD000A60608F6A805C00089
:100A0300E6FA08E6FBE9FEE4A804088005CEC31372
:100A1300CE13D8F9FFEA4EFEEB4FD000A60608F638
:100A23007401253DF53DE4353CF53C74062539F567
:100A33003902097B22C0E0C0F0C083C082C0D075F8
:100A4300D000C000C001C002C003C004C005C0067E
:100A5300C007E59E30E403539E6EE5D830E340E5DE
:100A63009D30E33B9002F2E0602CE5FA54076026E8
:100A73009002F4E0FEA3E0F5828E83E592F090020B
:100A8300F4E475F0011201CA9002F2E014F0E07090
:100A9300D3121BC480CE9002F2E07003439D04E5A1
:100AA300D830E737E59D30E7329002F3E0FF602569
:100AB300E5D830E6209002F6E0FCA3E0F5828C83D3
:100AC300E0F5929002F6E475F0011201CA9002F388
:100AD300E014F080D4EF7003121C40D007D006D08E
:100AE30005D004D003D002D001D000D0D0D082D022
:100AF30083D0F0D0E032752800752900752A00787C
:100B03002B7C007D007BFF7A0D796E7E007F0312C4
:100B1300015E7F647E0012197D7BFF7A0D792212BC
:100B2300165F7F647E0012197DE4FF121002753593
:100B33000075360075372B7B017A007915120E8804
:100B430090021312031790021312030EE94A4B602B
:100B53005675350075360075372B7B007A007900A2
:100B6300120E889002131203177531FF75320D753B
:100B7300332F120E068B288A29892AEA494B60C62D
:100B830075350075360075372B7B007A00790012B6
:100B93000E8890021312031778E37C027D01900202
:100BA3001312030E1205B4228F3A8E398D388C3707
:100BB30085A74175A720E537C313FEE53813FFEF7B
:100BC300253EFFEE353DFEE4353CFDE4353BFCAB15
:100BD3003EAA3DA93CA83B12026B8F40E4F53F744B
:100BE30008253FF8E6C395404054E47F02FEFDFC30
:100BF300AB3EAA3DA93CA83B1201E0C004A905AA4B
:100C030006AB077408253FF8E6FFE4FCFDFED000C1
:100C13001201E0A804A905AA06AB07AF3AAE39ADA5
:100C230038AC3712026BC3E49FFFE49EF5968F95B1
:100C33007410253FF8E6444042948541A722053FBE
:100C4300E53FB4089A80FEC0E0C0F0C083C082C014
:100C5300D075D000C000C001C002C003C004C005ED
:100C6300C006C00775A720E5F854F0F4440F52F806
:100C7300AF9BEF30E34DE5186031E5A120E02C3068
:100C83000113851C82851B83E5A3F0051CE51C70FD
:100C930007051B800385A327D5180D3003053000F6
:100CA30002D2FA121AFB800385181AE51960143070
:100CB300F911300209A81DE2F5A3051D800375A3F0
:100CC300001519D007D006D005D004D003D002D028
:100CD30001D000D0D0D082D083D0F0D0E0320D004C
:100CE3006766752036206E6F6E6500676675203601
:100CF300207374725F6163746976655F6E00676603
:100D0300752034206E6F6E6500676675203420632E
:100D13006F6E5F6163746976650073617665000D5C
:100D23000A6765742073792064206E0067657420F8
:100D330073792064206E00616476206F66660061BB
:100D430064762068696768007363616E007363612A
:100D53006E206F66660067657420626C20610067B1
:100D630065742073792076000D00000D0A00636F0F
:100D73006E200000120071787FE4F6D8FD75816F54
:100D8300020DC10213C3E493A3F8E493A34003F653
:100D93008001F208DFF48029E493A3F85407240CBC
:100DA300C8C333C4540F4420C8834004F45680019D
:100DB30046F6DFE4800B0102040810204080901304
:100DC30011E47E019360BCA3FF543F30E509541F37
:100DD300FEE493A360010ECF54C025E060A840B8A1
:100DE300E493A3FAE493A3F8E493A3C8C582C8CA1F
:100DF300C583CAF0A3C8C582C8CAC583CADFE9DEF2
:100E0300E780BE8B2E8A2F8930AB31AA32A93312E9
:100E130001846063AB2EAA2FA930120184605F8521
:100E230031348532358533368B378A388939AB345B
:100E3300AA35A936120184FF6023AB37AA38A93932
:100E43001201846F7017042536F536E43535F53510
:100E530074012539F539E43538F53880D1AB34AA36
:100E630035A9361201847002800D74012530F530E6
:100E7300E4352FF52F809DAB2EAA2FA930227B00BE
:100E83007A007900228B328A338934E94A4B70091C
:100E9300855632855733855834E5344533453270AA
:100EA30002802C85353B85363C85373DAB32AA33F2
:100EB300A9341210DEEF2534F534EE3533F533ABB8
:100EC30032FAA934120184700AF556F557F558FB26
:100ED300FAF92285353B85363C85373DAB32AA335B
:100EE300A9341212598B568A578958EA494B600E16
:100EF300E41205D1042558F558E43557F557AB32BC
:100F0300AA33A93422E4F5287F061210027F0812BF
:100F130010027F0D1210027F0E1210027BFF7A085F
:100F230079587D067F081210987BFF7A0879617DD6
:100F3300017F0D1210987BFF7A0879757D037F0E70
:100F430012109830832A308227E528C39408501B57
:100F5300E5282406FD7BFF7A0879857F091210981E
:100F63007F647E0012197D052880D8E4F52880D39C
:100F73007F061210027F081210027F0D1210027FEB
:100F83000E0210021218D078957C027D017BFF7A45
:100F93001679D21205B41218F7900278E064027041
:100FA300137F0E121002900295E0D39431402EE08D
:100FB30014F08029900278E0640470377F0E1210D9
:100FC30002900014E02430FFE433FE900295E0C366
:100FD3009FEE6480F87480985003E004F07B017AFC
:100FE3000279957D0A7F0E1210987FC87E00121930
:100FF3007D80A3900278E06401709B121800228F19
:101003002EE52E64097033E52E75F008A4F52FE55F
:101013002E2407FFE433FEEF7803C333CE33CED859
:10102300F9FFC3E52F9FEE6480F8748098503EE487
:10103300FDAF2F120036052F80D5E52E75F008A4DD
:10104300F52FE52E2403FFE433FEEF7803C333CEFD
:1010530033CED8F9FFC3E52F9FEE6480F8748098F0
:10106300500BE4FDAF2F120036052F80D522E490FC
:1010730002C4F09002C3F074039002C1F07E027FB9
:10108300AC121B907E027F97121B907B017A027930
:10109300E37D06E4FF8B328A338934EF75F008A4CD
:1010A300F536ED75F006A4F5377F60121BB8E4F54D
:1010B300357F6085323B85333C85343DAB35AD3779
:1010C300120975E5362535FF7B007A007960121524
:1010D3009C0535E535C3940840D7228B388A398976
:1010E3003AE4F53EF53FE4FEFFAB3BAA3CA93D8F56
:1010F300828E8312019DFD6013AB38AA39A93A127F
:1011030001846D60070FBF00010E80DDAB3BAA3C7D
:10111300A93D8F828E8312019D7002801A053FE5DF
:101123003F7002053EAB38053AE53A70020539F9DE
:10113300AA3912018470AFAE3EAF3F22C0E0C0F0C7
:10114300C083C082C0D075D000C000C001C002C03F
:1011530003C004C005C006C00753C87F53C8FBE5DE
:1011630059B401127559027F00855A267B02E4FDAA
:10117300FC121419800AE559B40305C2817559009C
:10118300D007D006D005D004D003D002D001D000C0
:10119300D0D0D082D083D0F0D0E0322095077FD05A
:1011A3007E0712197D209315E55D604C7BFF7A075E
:1011B30079E57D057F01121098E4F55D2230091968
:1011C300E55D640260327BFF7A0779F07D017F0180
:1011D300121098755D02C2092220091CE55D6401A5
:1011E3006016E55D640260107BFF7A0879047D0177
:1011F3007F01121098755D0122121B667F60121B1E
:10120300B8E49002C4F09002C3F09002C27404F0F8
:10121300740912107C7BFF7A0779BBE4FD7F02120D
:1012230010987BFF7A0779D1E4FD7F031210987B36
:10123300FF7A0779BBE4FD7F071210987BFF7A07DB
:1012430079DAE4FD7F081210987F09121002121157
:101253009E7FE30215508B388A39893A853B3E8558
:101263003C3F853D40AB3EAA3FA940120184FF604D
:1012730019AB38AA39A93A1201846F600D7401259C
:1012830040F540E4353FF53F80DBAB3EAA3FA94044
:101293001201846007AB38AA39A93A22AB38053A60
:1012A300E53AAA397002053914F912018470ADFBCD
:1012B300FAF922300657200526855554E554D39470
:1012C30000404574FF9554FFE49400FE74152FF518
:1012D3008274003EF583E0FF121550155480DD3013
:1012E3000526855554E554D39400401C74FF95544A
:1012F300FFE49400FE74142FF58274013EF583E03D
:10130300FF121550155480DD7555FFC20622021ECB
:101313000000015900015A00025B0000C100C10333
:10132300C104C101C102011800011900011A000121
:101333001D00021B000008080104080C10182030CF
:10134300081003010400050607024102F3004102ED
:10135300F200015D030155FF015400C106C185413F
:1013630000140341027800008B328A3389348B38AE
:101373008A39893AAB320534E534AA33700205332E
:1013830014F912018470ED74FF2534F53474FF35BC
:1013930033F533AB350537E537AA36700205361416
:1013A300F9120184FFAB320534E534AA3370020528
:1013B3003314F9EF1205D170DAAB38AA39A93A22FE
:1013C3001216D4C2A0752F00752EC2752D01752C6F
:1013D3000075300CE4F531F532F533753410F5351D
:1013E3007FC87E757D5DFC1200037D80E4FF1200E3
:1013F300767B087D06E4FF121A8E121A7612161FE8
:10140300121C641211FC1217A0D2AF121C6A121C18
:1014130070121B7480F585261885261985261A8F68
:101423001D8C1B8D1CEB139201EBA2E19202AFA763
:1014330075A720200403121B34439A0453F80F5357
:101443009BEF439A08300305300002C2FA30F915C6
:10145300E5196011300209A81DE2F5A3051D8003FB
:10146300E4F5A315198FA722121C5E8F53E555656A
:1014730053603F855554E554D3955340323005129C
:1014830074FF9554FFE49400FE74152FF5827400E5
:101493008011C374FF9554FFE49400FE74142FF578
:1014A3008274013EF583E0FF121550155480C78501
:1014B300535502119E121B667F60121BB8121071E6
:1014C3007BFF7A0779BBE4FD7F011210987BFF7ADB
:1014D3000879187D047F021210987BFF7A0779BB85
:1014E300E4FD7F031210987BFF7A0879267D027F43
:1014F300091210987BFF7A0879397D047F0A02105C
:10150300988F299002C2E0B40703121882E5296478
:101513000D6036E529B40A02802F9002C4E024ACA2
:10152300F582E43402F583E529F09002C4E004F087
:101533009002C2E0FF7B017A0279ACE4FD121098BD
:101543009002C4E0C394154003121882228F28E549
:1015530028B40A02803FE528640D603C9002C1E094
:10156300B410031218A99002C3E02497F582E4345F
:1015730002F583E528F09002C3E004F09002C1E095
:10158300FF7B017A027997E4FD1210989002C3E081
:10159300C3941540031218A9228F388B398A3A89CC
:1015A3003B7F8012191C8F3CE53804FF12182E8FE5
:1015B3003DE4FFAB39AA3AA93B8F82758300120140
:1015C3009DFE743E2FF8A6060FBF10E7E4F54EF517
:1015D3004FFB7A00793C7D140215DE8B508A5189CA
:1015E30052E55970FC7559018D5AE4FFEFC39D50C4
:1015F30018AB50AA51A9528F8275830012019DFE28
:1016030074002FF8EEF20F80E3AFA7E4F5A775CDD2
:10161300FF75CCF4D28143C8048FA722C208C20746
:1016230078667C027D017BFF7A16799A1205B4787D
:10163300797C027D017BFF7A1679AC1205B4788B35
:101643007C027D017BFF7A1679BE1205B4785C7C3F
:10165300027D017BFF7A1679C80205B478C57C0246
:101663007D011205B47535FF75360D75376B7B013A
:101673007A0279C512136B85A72E75A720C2AF7B9B
:10168300017A0279C5121AD2AD077E027FC5121BF9
:1016930045D2AF852EA72250423020776173205068
:1016A300726573736564210A005042312077617358
:1016B3002050726573736564210A00676574207333
:1016C3007920760D0067657420626C20610D00310E
:1016D3000085A728121BD0121C49121BDA121BE427
:1016E300121BEE121C5012002E121C76121BF81243
:1016F3001BAB121A44121C57121B9E121A5D1219AD
:10170300DA8528A722E4F55F7466255FF582E43461
:1017130002F583E0FF121504055FE55FC3941140F2
:10172300E7C2AF85A72875A7207E027F667D1112C9
:101733001B458528A7D2AF22E4F55F7479255FF5B1
:1017430082E43402F583E0FF121504055FE55FC30D
:10175300941140E7C2AF85A72875A7207E027F7941
:101763007D11121B458528A7D2AF22121B667F600D
:10177300121BB81210717BFF7A0779BBE4FD7F015E
:101783001210987BFF7A0879467D027F0212109827
:101793007BFF7A0779BBE4FD7F03021098D205E44F
:1017A300F55474152554F582E43400F583E4F0749C
:1017B300142554F582E43401F583E4F00554E5542B
:1017C300B4FFDFA205920A12185A7555FF2223208F
:1017D300202052535349202020204E414D45002DB7
:1017E3002020202D2D2D2D202020202D2D2D2D00AE
:1017F3002E2020003600200020000D0A0078287CCF
:10180300007D007BFF7A0D79717E007F0612015EF9
:101813007535017536027537957B007A0079281284
:10182300136B7B007A00792802165FEF540FC454C0
:10183300F0FEEF54F0C4540F4EFF543325E025E07F
:10184300FEEF54CC1313543F4EFF545525E0FEEFE7
:1018530054AAC3134EFF2285A75E75A720300A0D35
:101863007E007F157DFF121B82D205800E200A0B9E
:101873007E017F147DFF121B82C205855EA7229025
:1018830002C2E004F0E49002C4F07E027FAC121BBB
:10189300909002C2E0D39407400B7F041210029091
:1018A30002C27404F0229002C1E004F0E49002C387
:1018B300F07E027F97121B909002C1E0D3941040F8
:1018C3000B7F091210029002C17409F0227BFF7A88
:1018D3000879877D037F0B1210987BFF7A0879972D
:1018E3007D037F0C1210987BFF7A0879A77D0A7F0E
:1018F3000E021098D2EC30EDFDC2EDAFBDAEBE7C52
:101903000C7DE4120320E47BFF7A03F9F812026BE7
:101913001208A9900278EFF0228F50121ABCC3EF7D
:10192300951FFDEE951EFCD3ED94C8EC9400400783
:101933004350408E1E8F1FAF50227FE87E03121943
:101943007D7BFF7A0C79E312165F7FF47E01121917
:101953007D7BFF7A0C79EE02165F7FF47E0112190C
:101963007D7BFF7A0D790112165F7FF47E011219D8
:101973007D7BFF7A0D790C02165FAB07AA06121A5C
:10198300BC8F828E83121ABCC3EF9582FFEE9583C0
:10199300FEC3EF9BEE9A40ED22E4F55F748B255F67
:1019A300F582E43402F583E0FF121504055FE55F79
:1019B300C3940940E7021C2EE4F55F745C255FF5D0
:1019C30082E43402F583E0FF121504055FE55FC38B
:1019D300940940E7021C25E4F5A775E68075A71076
:1019E30075CE04F5A775A8E075B84075A71075F214
:1019F3004022C2957F147E0012197DD2957FF47E1A
:101A03000112197D7BFF7A0C79E102165F208203B4
:101A1300D2082230081030800512199C80062080DD
:101A230003121708C20822208303D20722300710AB
:101A33003080051219BB800620800312173BC207B2
:101A430022E59154045391FB7595F87594067593AB
:101A5300E875921343910442912275A7207594432C
:101A6300759D087596FF7595E643C81053D8EE43E8
:101A7300D806221219F512003212193D12195D12FD
:101A83001AA51217A0120AF9021C01AEA775A72006
:101A9300539DF0EF4B429D53D8F0ED440842D88E4E
:101AA300A7227FC87E0012197D7BFF7A0D791D1254
:101AB300165F7FC87E0002197DAFA7E4F5A753E642
:101AC3007FAD5CAC5B43E6808FA7AE04AF0522E439
:101AD300FFFE120184600C0FEF70010E09E970F232
:101AE3000A80EF22E4F528E4FDAF2812003605282A
:101AF300E528C3948040F022755903AFA7E4F5A706
:101B030075CDFF75CCFC43C8048FA72230800F121C
:101B1300176E1217A0121C371205E3120F8722202B
:101B23008306121B0FD209222082F4121C0AC20957
:101B330022E5A1A2E69203E5F8540C24FF9200D219
:101B430004229002F6EEF0A3EFF09002F3EDF043DF
:101B53009D8022C0E053917F055CE55C7002055BCC
:101B6300D0E032C281D2A37F0A7E0012197D021A0D
:101B7300E7AFA7E4F5A74387018587878FA722905F
:101B830002F4EEF0A3EFF09002F2EDF0228F828EDA
:101B930083E4FFE4F0A30FBF15F92275A20543A167
:101BA3004053F8F343F80122E5C8540453C8FB43F8
:101BB300C80442C822E4FEEF2EF8E4F60EBE10F786
:101BC30022B205A205920A12185AD20622E4F5A7F8
:101BD3007597DE7597AD2275A54175F27F75D5FEB4
:101BE3002275A60B75A72075CC0922E4F5A775E32A
:101BF3004175E1022275A920E5A930E7FB227BFFAD
:101C03007A0D793A02165F7BFF7A0D794202165FED
:101C13007BFF7A0D794B02165F7BFF7A0D795002B9
:101C2300165F7BFF7A0D795902165F7BFF7A0D7978
:101C33006202165F121C13120F08021C1CA285B34A
:101C43009285539D7F2275A44075D43F2275BB0FA7
:101C530043E88022758E5D758922229002F2E0FFAF
:101C6300221214B8021B221212B602146B121A109B
:101C7300021A2A53FF7F220020505020C0606010B8
:101C830040000000000000702070F810F830F87079
:101C9300700000080080707070F070E0F8F87088D1
:101CA30070388880888870F070F078F88888888821
:101CB30088F8700070200040008000080030008029
:101CC30020108060000000000000004000000000C1
:101CD3000000302060000000000000002050507819
:101CE300C890202020202000000000886088103049
:101CF3008040088888606010004088088888889041
:101D03008080888820109080D88888888888802060
:101D130088888888880840001050002000800008C8
:101D23000048788000008020000000000000004090
:101D330000000000000040201040000000000000F0
:101D43002050F88010A0404010A820000000089800
:101D530020082050F080108888606020F820080850
:101D630088888088808080882010A080A8C8888880
:101D730088888020888888508810408010880010C8
:101D830070B07068704088B060309020D0B070F050
:101D930068B070E08888888888F8402010A8000020
:101DA3000000000020005070204000401070F80038
:101DB300F80010A82010109008F020707800004060
:101DC3000010106888F08088F0F0B8F82010C08008
:101DD300A8A888F088F070208888A8205020404068
:101DE3001000000008C8809888E088C82010A02050
:101DF300A8C8888898C88040888888508810802020
:101E030008100000000000000000F80840A800408F
:101E130010A82060000020C8202008F80888408807
:101E230008606020F82020A8F8888088808088884F
:101E33002010A08088988880A8A008208888A850AF
:101E4300204040201000000078888088F84078887F
:101E53002010C020A88888F0788070408888A82047
:101E6300782040201000000000000000000050F027
:101E73009890002020202020006040882040881077
:101E83008888408810602010004000A888888890C7
:101E9300808088882090908088888880909008200F
:101EA3008850A88820804010100000008888888807
:101EB300804008882090A02088888880088008486F
:101EC3009850A85008404020100000000000000077
:101ED300200050201868001040000040006080700F
:101EE30070F87010707040706000400800802070BF
:101EF30088F070E0F8807088706088F88888708057
:101F03006888F0207020508820F870087000FC006A
:101F130078F07078704070887060907088887080F6
:101F23000880F0306820508870F83020600000008E
:101F3300000000000000000000000000000000009E
:101F4300000000000000000000000000000000008E
:101F5300000000000000000000000000000000007E
:101F6300000000000000000000000000000000006E
:101F7300000000000000000000000000000000005E
:101F8300000000000000000000000000000000004E
:071F93000000000000000047
:00000001FF
